:020000040800F2
:1000000000180020152F00081D1600081F160008F4
:1000100000000000000000000000000000000000E0
:100020000000000000000000000000002116000891
:10003000000000000000000023160008251600083C
:10004000852F0008852F0008852F0008852F0008C0
:10005000852F0008852F0008852F0008852F0008B0
:10006000852F0008852F0008852F0008852F0008A0
:100070002D160008852F0008852F0008852F000801
:10008000852F00080000000000000000852F0008F8
:1000900000000000852F0008852F0008852F00082C
:1000A00000000000852F0008852F0008852F00081C
:1000B000852F0008000000003D160008852F00086D
:1000C00010B5064C2378002B07D1054B002B02D02E
:1000D000044800E000BF0123237010BD040000208D
:1000E00000000000F42F0008044B10B5002B03D0D3
:1000F0000349044800E000BF10BDC04600000000F6
:1001000008000020F42F000802B471464908490095
:10011000095C49008E4402BC7047C0460022430877
:100120008B4274D303098B425FD3030A8B4244D3BF
:10013000030B8B4228D3030C8B420DD3FF22090201
:1001400012BA030C8B4202D31212090265D0030BC0
:100150008B4219D300E0090AC30B8B4201D3CB03B6
:10016000C01A5241830B8B4201D38B03C01A5241F8
:10017000430B8B4201D34B03C01A5241030B8B42FA
:1001800001D30B03C01A5241C30A8B4201D3CB02E5
:10019000C01A5241830A8B4201D38B02C01A5241CA
:1001A000430A8B4201D34B02C01A5241030A8B42CD
:1001B00001D30B02C01A5241CDD2C3098B4201D3E5
:1001C000CB01C01A524183098B4201D38B01C01A63
:1001D000524143098B4201D34B01C01A52410309DA
:1001E0008B4201D30B01C01A5241C3088B4201D389
:1001F000CB00C01A524183088B4201D38B00C01A36
:10020000524143088B4201D34B00C01A5241411A5C
:1002100000D20146524110467047FFE701B5002069
:1002200000F006F802BDC0460029F7D076E7704717
:100230007047C046F8B54546DE4657464E460C0365
:10024000E0B54E00C90F88460D00610A440F0C430B
:10025000C70019035800DB0F9B464B0A510F0B4395
:10026000760D400D1900D200D84500D1AEE0351A08
:10027000002D00DCF6E000280FD1134300D1DBE0B5
:100280006B1E002B00D037E1BA1A9742BF41641AA7
:100290007F42E41B0126170024E0C64B9E424DD04E
:1002A00080231B041943382D00DD07E11F2D00DDDD
:1002B00038E12020431B9A460B0050468340994664
:1002C00013004846EB401843030050468240501E3E
:1002D0008241E9401A43BA1A611A9742A4411700B1
:1002E00064420C1B230262D56402650A002D00D112
:1002F000DFE0280000F080FE0300083B1F2B00DD3C
:10030000D2E020223C00D21A9D40D4409F40254399
:100310009E4200DDC4E09E1B731C1F2B00DDF1E03C
:10032000202238002900D21AD840914097402C0052
:100330000143781E8741DC4000260F437B0709D02C
:100340000F233B40042B05D03B1DBB42BF417F42E6
:10035000E4191F0023022CD5964B01369E4200D192
:100360009AE04546944BFF081C40600776056402FE
:100370000743240B760D00212403230B0C0D8F4A19
:1003800024051C431440330523435B00ED075B0841
:100390002B43380019003CBC90469946A246AB4618
:1003A000F8BD6446044300D111E2040067467B07B0
:1003B000C6D145466007FF080743E4087D4B9E42CF
:1003C00030D024037605240B760DD4E7331A9A46F1
:1003D000002B78DD002831D076488642AED08020D0
:1003E000000401435346382B00DCE9E00A43511E68
:1003F0008A410021D219BA42BF4109197C42170033
:100400000C192302D3D56B4B01369E4200D13AE141
:100410000120694B1C407B0807401F43E00707434E
:1004200064088BE723003B4300D1CBE18022120319
:1004300014432403240B9EE72E007FE7080010439B
:1004400000D1B4E0581E002800D0DEE0BA18BA424D
:100450009B4164185B42E418170001262302A6D5CD
:100460000226D5E7002D6ED1701C4005400D0128F5
:1004700000DCF9E0B81A844687428041E51A404220
:100480002D1A280200D489E0D71BBA4292411C1BC6
:100490005242A51AD84629E74546002400276AE7B4
:1004A000454CF61A2C4049E73D0028388540002786
:1004B0002EE7380000F0A0FD20301DE70A43511E52
:1004C0008A41002107E7002B00D0F3E0701C4305B0
:1004D0005B0D012B00DCADE0364B984200D1D1E042
:1004E000BA18BA42BF4164187F42E419E7075208BC
:1004F00017436408060021E72E48854200D193E0A7
:100500001D00D0E629001F3EF140202B00D18DE0D8
:100510004022D31A9D402F437D1EAF4100240F433C
:10052000002644E72B000800203BD8400300202D84
:1005300000D17DE04020451BA9400A43511E8A415D
:1005400000211A43C7E6002E50D01A4EB04257D0B1
:1005500080266B429946360434434B46382B00DDE7
:10056000D6E01F2B00DD35E12026F51A2600AE402F
:10057000B2463E00DE40AC46350056462E43654648
:10058000AF407D1EAF41DC403743D71BBA4292419A
:100590000C1B5242A41A0600D846A3E664466746DE
:1005A0002C4300D0A2E600250026002706E71E0007
:1005B000C4E6C046FF070000FFFF7FFFFFFF0F807C
:1005C0001F2B63DC2020C31A080098409C468346FA
:1005D00053461000D84003005846184363469A40DB
:1005E000531E9A4153460243D94003E726003E4337
:1005F00006D0EB439946002BC7D0944EB042ACD105
:100600000C0017000600D84698E6904B9A450BD090
:100610008246E7E6002800D09EE01800104300D193
:10062000E9E01C001700D846884E87E6002572E7EF
:10063000002182E723003B43002E00D0ABE0002BDB
:1006400000D1E7E00B00134300D177E6BA18BA42B5
:10065000BF4164187F42E419230200D4F2E07C4BCE
:1006600017001C40060069E620003843002ED1D157
:1006700000285BD11C00144300D1A8E01C00170027
:10068000D8465BE606000024002797E650460B009C
:100690002038C34099465346202B00D195E0402393
:1006A00050461B1A99400A43511E8A414B4600216D
:1006B0001A439FE6002E30D126003E4367D0DB432D
:1006C0009A46002B1CD0614EB04260D05346382B66
:1006D00000DD96E01F2B00DD9FE02026F31A2600A8
:1006E0009E409C46B34653463E00DE4033005E4685
:1006F0001E4363469F407B1E9F415346DC40374369
:10070000BF189742924164185242A418060078E636
:1007100027437C1EA741002437E74C4EB04236D019
:1007200080265B4236049A463443CFE718001043D4
:1007300000D103E6B81A84466745AD41E01A6D4220
:10074000401B050200D42CE6D71BBA4292411C1B69
:100750005242A41AD846F1E51800104300D163E7CD
:10076000F808670707438020E4080003044208D024
:10077000DD08054205D1D208590711430F002C00AE
:10078000D8467B0FE4001C43FF00304ED6E50C003A
:1007900017000600D2E5002B38D00B00134300D120
:1007A00042E7F808670707438020E4080003044293
:1007B000E7D0CB080342E4D1D208490711430F0028
:1007C0001C00DEE700270024D5E500216BE70025AB
:1007D0000027F3E54E462500203EF5404B462E000F
:1007E000202B2DD04025ED1AAC4027437C1EA7417D
:1007F00000243743C9E6802400252403134E002734
:10080000DCE527437C1EA741002479E70C00170094
:100810000E4E93E50C00170090E556462300203E4F
:10082000F34099465346202B0ED0402356469B1B3F
:100830009C4027437C1EA7414B4600241F435FE793
:100840000024D2E71700B2E50024F2E7FF0700001A
:10085000FFFF7FFFF0B557464546DE464E46E0B502
:100860000C0398464E00230B87B0070092469B4628
:10087000760DCD0F002E6BD06D4B9E4235D080246F
:100880005B46420F2404DB0014431C43C30099461B
:10089000684BA3469C4600230027664402934346C8
:1008A0001C035A00DB0F5046240B520D984600D112
:1008B00076E05F4B9A426DD08023410F1B040B43BF
:1008C0005C49E4008C461C43C3000020624441465E
:1008D000B6186940721C0191944607430F2F00D946
:1008E000B0E0554ABF00D25997465B46034399464C
:1008F00000D087E000239B46023308270293CEE70F
:1009000042460192022867D0032800D10EE2012856
:1009100000D062E1002300240022994601990140A1
:10092000CDB2002112030B0D120B1B051343434ADA
:10093000240513401C436400ED0764082C4348461B
:10094000210007B03CBC90469946A246AB46F0BD9C
:10095000034399464FD05B46002B00D189E15846AE
:1009600000F04AFB03000B3B1C2B00DD7AE11D224B
:10097000D31A3A0001005C46DA4008398C40130073
:100980008F4023439B46B94600232D4E0027361A3D
:10099000029384E7534623432AD10024022096E79A
:1009A0005346234320D0002C00D157E1200000F013
:1009B00023FB03000B3B1C2B00DD49E11D21CB1A5F
:1009C00051460200D9405346083A944093400C43A4
:1009D0001B4A121A00207AE70125019B144C1D4086
:1009E0000023002299469CE70024002201206EE7A4
:1009F000534603206BE700239B4601330427002660
:100A000002934CE7032381460C27029347E7802299
:100A10000023002512039946054C82E75C464B46AD
:100A200002986FE75C464B46019502986AE7C0461C
:100A3000FF07000001FCFFFF2C300008FFFF0F80C4
:100A40000DFCFFFF4A464946170C1A0C1B041B0CF1
:100A500008041900000C41431500884619007D4325
:100A60007943039589462900150045434D44029575
:100A700045462D0CAA46029D5544A94506D98A46ED
:100A8000802149028946CA4451460391290C0491A8
:100A9000414609042D04090C88462900250C24042C
:100AA0004144240C059121004143884621007943AB
:100AB0008A466843414650448146080C48446F4387
:100AC000824503D98021490289464F44010C894659
:100AD00039004944029141460F0404993F0C88466D
:100AE0000004C01980444146049159460F0C090482
:100AF000090C884659438A46390051438946414684
:100B00004A435146090C8B467B43D2185A449342C0
:100B100003D980235B029B46D94451460904090C42
:100B20008A46414661437C43130C12044B445244B1
:100B3000A1468A463C0041466C434D4351464D44D4
:100B40000F0C7D19A94503D98021490288464444E8
:100B5000049F0399B84641448B46834580414142F6
:100B60008846514608042F04000C3F185846029945
:100B700010188946904292414F44BA4652429946D3
:100B80009346C244D144CB448F42BF41C2458941C0
:100B900099459B41934592417F4249422D0C5242D7
:100BA0000F435B4213437F19FF185B463C19DB0D73
:100BB000059A64021C43430213435D1EAB415A462F
:100BC000C00D034352021343E20156D501205A08D7
:100BD00003401343E207134364085A486044002863
:100BE0004DDD5A0709D00F221A40042A05D01A1DDC
:100BF0009A429B415B42E4181300E20104D5802035
:100C0000514AC00014406044504A904200DDE3E67F
:100C10000125DB0862071A436402019B9146220BFF
:100C20004405640D1D407CE68022594612031142A2
:100C300008D0144206D122431203120B45469946AE
:100C4000434C6EE65B461A431203120B404C68E6B7
:100C500003005446283B9C400023B9E600F0CCF941
:100C60002030A6E60300283B9F400023BB46994660
:100C70008AE600F0C1F9203074E6B446ADE70125FC
:100C80002A1A382A06DD019B00241D400023002279
:100C9000994646E61F2A21DC20252000AD1A1E00B9
:100CA000AB40A840D6405D1EAB4130431843D44012
:100CB000430709D00F230340042B05D00300181D60
:100CC00098429B415B42E418230221D50125019BF8
:100CD00001241D4000230022994622E61F25210001
:100CE0006D42281AC1400800202A1DD05F35AA1A7B
:100CF000944023435C1EA341072503431D4000226B
:100D0000002D09D00F2200241A401800042AD6D141
:100D1000030065076402220BDB082B43012599467B
:100D2000019B00241D40FCE50024E2E78022012510
:100D30001203224301991203120B0D409946044CF1
:100D4000EFE5C046FF030000FFFFFFFEFE070000C7
:100D5000FF07000030B5134D0A034B00120B5B0D6B
:100D6000C90F0024AB4210DD0F4CA3420FDC8024DE
:100D70000E4D64032243ED1A1F2D0BDD0C48C31AE0
:100D8000DA405442002900D11400200030BD094B44
:100D9000CC18FAE7084CE840A44663449A40024362
:100DA000EFE7C046FE0300001D040000330400000E
:100DB00013040000FFFFFF7FEDFBFFFF70B500286D
:100DC00030D0C317C4185C40C50F200000F014F9E0
:100DD000174B184A1B1AD21A1F2A18DD164AD21AA4
:100DE0009440002224035B05240B5B0D00211000BE
:100DF00024030A0D240B12052243104C1B0522402C
:100E000013435B00ED075B082B43190070BD210005
:100E100091400A000B21081AC4405B052403240BEF
:100E20005B0DE3E70025002300240022DEE7C04637
:100E30001E0400003304000013040000FFFF0F80B5
:100E40004100090E4B1C70B5DBB24602750AC40F97
:100E5000012B14DDE0239B006D07360BCB1800211E
:100E60000A0D280012051C4D32435B052A405B0821
:100E700013435B00E4075B082343190070BD00299E
:100E800014D1002D1ED0280000F0B6F80A281CDC72
:100E90000B232A001B1ADA40030015339D400F4B29
:100EA00012031B1A5B05160B5B0DD8E7002D06D04D
:100EB000320B802636036D071643094BCFE7084BEC
:100EC0000026CCE700230026C9E703002A000B3BDD
:100ED0009A400025E3E7C046FFFF0F80890300002A
:100EE000FF070000F0B54C00640D0B03621C450FBA
:100EF0005B0A52052B43C90FC500520D012A28DD9C
:100F00003A4AA618FE2E1BDC002E3EDD80010200B0
:100F1000501E82416D0F2A43DB0013435A0704D051
:100F20000F221A40042A00D004338022D2041A402F
:100F30005AD00136FF2E03D09B015B0AF4B201E0C8
:100F4000FF2400235802E405400AC9072043084350
:100F5000F0BD002C07D01D43F2D08020DB008004C0
:100F60000343FF26DAE72B4303D00523DB08FF2CDE
:100F700003D05B025B0AE4B2E4E7002B32D08020AE
:100F8000C00303435B025B0ADCE73200173214DB69
:100F900080221E2712041343BF1B1F2F0FDC144A8D
:100FA000944664442A00A5402E00A340751EAE411D
:100FB000FA40334313430026B0E70024D5E702226A
:100FC0005242961B1A00F240202F09D0094884464D
:100FD0006444A3402B435D1EAB41002613439DE7B1
:100FE0000023F7E70023ADE73400BFE780FCFFFFF5
:100FF00082FCFFFFA2FCFFFF1C2101231B0498427F
:1010000001D3000C10391B0A984201D3000A083999
:101010001B09984201D30009043902A2105C401850
:101020007047C046040302020101010100000000F4
:10103000000000000300181C0E38FDDC70470000A3
:1010400010B5FFF7BBFE094A094BFFF703FC00226E
:10105000084BFFF7EFF8FFF745FFFFF7F1FE00221F
:10106000054BFFF7E7F8FFF775FE10BD14141414D5
:101070001414C43F00804B400000E03F70B50A4CA0
:101080000600256800F0F6FC084BAD00E850236828
:10109000022B05DD00233000236000F08DFC70BDC5
:1010A00001332360FBE7C04660000020640000209D
:1010B00070B50F4C0021200001F0D2FE0421200069
:1010C00001F0CEFE0821200001F0CAFE0C21200014
:1010D00001F0C6FE80250748902400F0A7FC2D02F1
:1010E000E40500222900200001F0A6F9F9E7C04636
:1010F000C40000200401002010B5102492B0342256
:10110000002105A801F06DFF0021220001A801F0D7
:1011100068FF122305A80593113B08930A930994CD
:101120000B9401F093F9011E01D0FFF7C1FF0723D3
:1011300002900390049001A8019301F0F5FB0028B0
:10114000F3D112B010BD0000F0B599B000F0C0FAB4
:10115000FFF7D2FF142200210EA801F042FF8020E9
:101160009D4B8002596980240143596180215A694D
:10117000C902024090200092009A5A6924020A4350
:101180005A615B6900220B4001932100C005019B5D
:1011900001F052F9902000250127C0050EA90E94F8
:1011A0000F971095119501F09DF88C4C8C4B2000F9
:1011B000236004236360C0239B04E360A0231B031C
:1011C0002361C0239B03A5606361A561E56127627C
:1011D0006562A562E56200F0B3FDA84201D0FFF7A9
:1011E00067FF804B139023637F4B149063630E2340
:1011F0000E900F901090119012900EA9200015974C
:101200001697179300F02CFD061EE8D18022236B61
:1012100092001A60023AFF3AD86098601A755F60CF
:101220001F610100F33A04A801F0DBFE6F4D704B23
:1012300028002B6004236B61C223FF336E60AE6015
:10124000EE602F61AE61EE612E626E62AB62EE62A5
:101250002E636F6300F00AFB0028C0D180235B017E
:101260000593802304905B0504A92800069300F0F1
:1012700077FC0028B3D104A92800049700F070FC83
:101280000028ACD1022304A92800049300F068FCD4
:101290000028A4D1032304A92800049300F060FCD3
:1012A000071E9CD10100082202A801F09AFE1C2210
:1012B000390007A801F095FEA0234E4D4E4E6B60FD
:1012C000FA2328009B002E60AF60EB602F61AF61B6
:1012D00001F0D6FC002882D10290039002A92800D8
:1012E00001F0F6FD021E00D079E760230890099016
:1012F0000B9007A92800079301F01AFD002800D0E1
:101300006DE7042207A9280001F012FD002800D093
:1013100065E7082207A9280001F00AFD002800D08F
:101320005DE70C2207A9280001F002FD071E00D08E
:1013300055E7280000F034F93900280001F06EFD6F
:101340000421280001F06AFD0821280001F066FD53
:101350000C21280001F062FD2848FFF76BFE2748AA
:10136000FFF768FE802190200902C005012201F0EC
:1013700063F84B23390073632000B363F363336472
:1013800000F07CFD002800D029E7802636022000EE
:1013900000F052FF1A4D28602B68082B02D02B68F2
:1013A000102B0AD1230000213D332000197000F0DA
:1013B00065FD002800D012E72860200000F038FF0B
:1013C000104B310018609020C00501F03BF80E482A
:1013D000FFF730FEDBE7C046001002407C00002033
:1013E0000064004044000020200000200401002090
:1013F00000240140C40000200004004080C3C90153
:1014000074000020780000208096980070B580213C
:101410000600902001220902C00501F00DF8746B4E
:101420000E4B22689A4210D1E07EFFF709FE0C4D68
:101430006863A07EFFF704FEA863607EFFF700FEEE
:10144000E863207EFFF7FCFD28640021300000F0F7
:1014500015FD002801D0FFF72BFE70BD0202000031
:101460000004004001200A4B82B099690143996150
:1014700080219A69490502400092009ADA690A437C
:10148000DA61DB690B400193019B02B07047C046F3
:101490000010024010B5040088B01422002103A8F7
:1014A00001F09FFD144B22689A4223D18020134BF8
:1014B000800099690143996180219A6989020240FB
:1014C0000192019A5A6990200A435A615B69C005EA
:1014D0000B400293029B0F2303A903930C3B04933D
:1014E00000F000FF0C200022012100F0A7FE0C20DC
:1014F00000F0D4FE08B010BD0024014000100240EE
:1015000010B5040088B01422002103A801F069FD81
:10151000174B22689A4228D18020164B8004D96943
:101520000143D9618021DA69890202400192019A5E
:101530005A6990200A435A615B69C0050B400293C7
:10154000029BC0235B0103930223049301330693A0
:1015500003A90133079300F0C5FE00221E201100ED
:1015600000F06CFE1E2000F099FE08B010BDC046D1
:101570000064004000100240074B026882B09A42AB
:1015800008D10220054AD1690143D161D3690340E2
:101590000193019B02B0704700040040001002401C
:1015A00030B5040089B01422002103A801F019FD10
:1015B000174B22689A4228D18020164B8002596925
:1015C00002250143596180215A69C90202400192F2
:1015D000019A5A6990200A435A615B6901240B40C1
:1015E0000293029BC02303A9C005039304950794AB
:1015F00000F078FE03230393002303A90648049513
:1016000005930693079400F06DFE09B030BDC04607
:101610000004004000100240000400487047FEE74C
:101620007047704710B500F063F810BD10B5024860
:1016300000F026FA10BDC0460401002010B5024893
:1016400000F004FD10BDC0467C0000200121114BBC
:1016500011481A680A431A605A6802405A601A68A8
:101660000E4802401A601A680D4802401A605A6813
:101670000C4802400F205A60DA6A8243DA621A6B21
:10168000094802401A635A6B8A435A6300229A60DF
:101690007047C046001002400CB8FF08FFFFF6FE7E
:1016A000FFFFFBFFFFFFC0FF2CFEFFFF10B5040094
:1016B00001F0E8F9FA218900FEF730FD00F0F8FDAD
:1016C000012000222100404200F0B8FD002010BDA2
:1016D0001023064A10B5116800200B431360FFF772
:1016E000E5FFFFF7BFFE002010BDC046002002400E
:1016F000024A1368013313607047C046500100204E
:10170000014B18687047C046500100200321036850
:1017100070B59A6804000A40012A01D0002070BD0B
:101720001968114202D1DA681204F7D505229D68C2
:101730001540012D1AD1022299680A439A600322AA
:101740001A60FFF7DDFF060023689B682B42E5D097
:10175000FFF7D6FF801B0228F6D91023626C012008
:1017600013436364A36C1D43A564D8E710230120D1
:10177000626C13436364A36C0343A364CFE700006C
:10178000002373B503210193036804009A680A409B
:10179000012A07D11968114201D0002076BDDA680C
:1017A0001204FAD49968194A114208D01023012072
:1017B000626C13436364A36C0343A364EEE70122EA
:1017C00099680A439A60124B12491868FEF7A6FC02
:1017D0000190019B002B15D1FFF792FF0125060018
:1017E00023681B682B42D8D1FFF78AFF801B022891
:1017F000F6D91023626C012013436364A36C2B435E
:10180000A364CBE7019B013B0193E2E71700008053
:101810000000002040420F000422036870B5996860
:101820000400114201D1002070BD9968114206D018
:101830009A68920703D4102299680A439A60FFF7C6
:101840005FFF0425060023689B682B42EBD0FFF75F
:1018500057FF801B0228F6D910230120626C134326
:101860006364A36C0343A364DEE70000F8B50400DF
:101870000120002C72D0636C002B06D12200403274
:10188000A36420001370FFF705FE636CDB0600D530
:1018900079E0042223689868104000D073E0626CFD
:1018A0004249114002220A43032162649A680A40B5
:1018B000012A00D06DE01968114202D1DA681204E1
:1018C00067D5DA683A49256A0A40DA60A2696F0387
:1018D0009103E269D2031143626B013A561EB24191
:1018E0001603E268114322690F43022A00D1042043
:1018F000226B616A52003A4332430243012904D108
:10190000002D2CD1802149020A43C220A16AFF3058
:10191000814202D0E06A01430A438020D968400531
:101920001143D960A16B814202D0481E062807D816
:10193000072558692940A8435861586901435961EE
:10194000DB681C490B409A4211D100200322A0649D
:10195000636C93431A00012313436364F8BD202092
:10196000656C28436064A06C0143A164CDE712223A
:10197000636C012093431A00102313436364A36C28
:101980000343A364EAE71023626C012013436364FA
:10199000E4E71821DA688A43A1680A43DA60196922
:1019A000626889008908114319618AE7FDFEFFFF1B
:1019B0001902FEFFE7FF3F83036870B59B680400D0
:1019C00002205B0720D4250040352B78012B1BD04B
:1019D00001232B70E369012B11D1636C124A6169F9
:1019E0001A4080235B001343636400231C22A3641A
:1019F0002B7023681A60082907D059680BE0200073
:101A0000FFF7BEFE0028E8D070BD04215A688A4363
:101A10005A60182259680A435A60042299680020C3
:101A20000A439A60F0E7C046FEF0FFFF70B506007B
:101A30004036337804000220012B17D00125200006
:101A40003570FFF7E9FE00280ED11C212268200026
:101A500053688B435360FFF759FE002804D1636C31
:101A6000034A13401D4365640023337070BDC046B4
:101A7000FEFEFFFF0368186C704770477047000058
:101A80000422036870B519680400114202D0596835
:101A9000114206D108221968114228D05968114212
:101AA00025D0626CD20604D48022616C92000A4375
:101AB0006264C022D9681201114212D1226A002A3E
:101AC0000FD11A6812070CD59A6852073CD40C2122
:101AD0005A688A435A60636C204A1A4001231343B0
:101AE00063642000FFF7CAFA0C2223681A6080257D
:101AF00023681A682A420CD05B682B4209D08023E5
:101B0000626C5B02134363642000FFF7B6FF236837
:101B10001D60102223681968114214D059681142BF
:101B200011D0626B012A02D0DA68D20708D50222EE
:101B3000A16C20000A43A26410221A60FFF79EFFE6
:101B4000102223681A6070BD2023626C1343636403
:101B50000123A26C1343A364C3E7C046FEFEFFFF4C
:101B6000F7B50023040001934034237805000220D8
:101B7000012B2BD001232A68AE6B9068237040079D
:101B80005AD430484F680D6887423FD0AB401800A8
:101B90008023976A5B05384390629E420FD0013ED6
:101BA000062E0CD98B68072150690840834206D065
:101BB00050690B40884350615069034353612B00C7
:101BC000103B022B03D9002000232370FEBD1E4AC8
:101BD00080231168102D15D0112D15D05B040B43F7
:101BE0001360102DEFD1194B19491868FEF796FABA
:101BF0000A2358430190019B002BE4D0019B013B39
:101C00000193F8E71B04EAE7DB03E8E7AB40916ADE
:101C100099432B00103B9162022BD4D80A4B1A68CF
:101C2000102D05D0112D05D00A490A401A60CAE7C7
:101C30000949FAE70949F8E72022696C18000A43C4
:101C40006A64C1E70110000008270140000000207D
:101C500040420F00FFFFFFFEFFFF7FFFFFFFBFFFC0
:101C6000F7B50126802734000368BF00D8594D6AB4
:101C7000009028020190009D30484A6905402800E4
:101C80009440019D284330438726E543D851B60050
:101C9000985928409851C869002833D1103E985966
:101CA000D20028409851C8688E880004304390269E
:101CB0009A18B600905188680E8800043043912627
:101CC000B600905181228869920000282ED1985840
:101CD00028409850852208699200002829D19858F8
:101CE00005409D500A6A012A04D187229200995822
:101CF0000C439C508021012089005A5882435A503D
:101D00000020FEBD0128DDD18326B6009859D200FF
:101D10002043985108688E880004304390269A1812
:101D2000B600905188688E890004C7E79858204310
:101D3000CFE7985820439850D4E7C046FFC0FFFF34
:101D4000F7B504000120002C70D025003D352B781C
:101D5000DBB2002B05D122003C3213702000FFF7CC
:101D6000CFFB02210127236829701A688A431A6071
:101D70001A683A431A60FFF7C3FC019023685E6853
:101D80003E4049D05A683A4200D173E0A1698022AE
:101D900001294CD119680A431A60E16940220129DE
:101DA00049D119680A431A60216A2022012946D1C3
:101DB00019680A431A60616A1022012943D119681F
:101DC0000A431A60A16A0822012940D119680A430E
:101DD0001A60E16A042201293DD119680A431A6098
:101DE0000126E168A2680A4321690A4361690A433E
:101DF000616801390A43DA611A68B2431A60FFF771
:101E00007FFC070023685A68324228D15868304066
:101E100030D120642E7009E0FFF772FC019BC01ADC
:101E20000A28ABD903203C3428702670FEBD1968FF
:101E300091431960B1E7196891431960B4E71968D3
:101E400091431960B7E7196891431960BAE71968B7
:101E500091431960BDE7196891431960C0E7FFF726
:101E60004FFCC01B0A28CDD9032000233C34287026
:101E70002370DBE7042301202B70D7E730B5040083
:101E80003C34237805000220012B14D00123237059
:101E90002B003D3300290FD11A78222A08D01A7856
:101EA000422A05D01A78622A02D01A78722A1BD1E7
:101EB00000230220237030BD01290BD11A78322A69
:101EC000F6D01A78522AF3D01A78622AF0D01A780B
:101ED000722AEDD01A78D2B2222A22D0422A22D0F7
:101EE000122A22D1403208E01A78D2B2322A18D00F
:101EF000522A18D0122A12D130321A7000238F20A1
:101F00002A682B6455690002284350615069237088
:101F100099420CD10A33034353610800CBE72222D4
:101F2000EBE76222E9E77222E7E73222E5E7502198
:101F3000014351611800BEE770470000F7B5002962
:101F400061D1436BD82602680C0115190194042451
:101F50007600AF5927409F6057D1AF597F0D1F6062
:101F6000DA270F24AE597F00B607F60FDE60EE5970
:101F7000ED5926402D0A0C01EDB21419DD61250042
:101F8000B935FF351E612E68BD341E752E68FF34CD
:101F9000360A5E752E681962360C9E752D682D0EF8
:101FA000DD7525681D7625682D0A5D7625682D0C62
:101FB0009D762468240EDC762023002929D1D4685C
:101FC00023430A24D3605369A343536103003D3381
:101FD0001A78222A02D01A78322A04D10468194DBC
:101FE00062692A4062611A78D2B200291BD1622A42
:101FF00015D0722A15D0422A21D1303A1A70FFF733
:1020000005FA0020FEBD836B9CE7AF59FF085F60B7
:10201000A6E714692343136153695024D4E732229D
:10202000ECE75222EAE7622A05D0722A05D0522A4A
:1020300005D1403AE2E72222E0E74222DEE7012230
:10204000DCE7C046FF70FFFF704700001022036806
:1020500070B5D96804000025114205D059690907F7
:1020600002D58025DA60AD0010221969114206D030
:102070005969490603D58021C9000D431A615A697F
:10208000D2073AD59A6864490A408A4209D09A68C8
:1020900062490A408A4204D09A6861490A408A42E9
:1020A0002BD19A68920706D49A68920503D49A684D
:1020B000920300D492E001215A698A435A612200B6
:1020C0003D321178122903D15969564801405961AE
:1020D0001378DBB2522B00D17AE0722B00D179E079
:1020E000422B00D078E0203B13702000FFF724FF44
:1020F00022684D4B91680B43936023685A6992079D
:1021000006D5DB689B0703D000212000FFF716FFF0
:1021100023685A69D20606D51B699B0703D00121A3
:102120002000FFF70BFF0122236C1D432368256469
:102130009969114208D05969C90505D55969090439
:1021400002D5216C0A43226402229969114208D007
:102150005969890505D55969090402D5216C0A43D5
:10216000226404229969114208D05969490505D5AC
:102170005969090402D5216C0A43226470219A69C5
:102180000A4212D05A6912050FD55A6912040CD5A9
:102190009A690A40302A35D024D8102A2AD0202A19
:1021A0002DD070219A698A439A61226C002A0ED040
:1021B0000422596820000A435A60220001213D325E
:1021C00011705A6919490A405A61FFF73DFF70BD05
:1021D000322389E7622387E7012385E780231B01F8
:1021E0001D4385E7502A10D0602A11D0402AD8D14B
:1021F000216C01E00822216C0A432264D1E7216CA2
:102200001022F9E7216C2022F6E7216C8022F3E707
:102210008022216C5200EFE7010000040001000859
:1022200000000110FF70FFFF19050100A470FFFFFF
:102230003D300078C0B27047006C704770B58901BE
:10224000002814DA0F23C0B20340083B114A9B0850
:102250009B009B18032210409040FC321500114057
:1022600085408140DC69AC432143D96170BD0325C1
:1022700083082840A840FC352E00074A9B009B1885
:10228000C02286402940814092009C58B44321439B
:102290009950EBE700ED00E000E100E01F2318405B
:1022A0001E3B8340014A13607047C04600E100E0D6
:1022B000094A431E012093420DD8C021074A08480D
:1022C0005360036A09061B021B0A0B4303620020CA
:1022D0000723906013607047FFFFFF0010E000E0ED
:1022E00000ED00E0F0B50B6887B002930023019188
:1022F000029ADA4001D107B0F0BD01229A40039260
:102300000399029A0A40009200D188E0019A1021B4
:10231000526816008E43022E0ED107251D40AD00D7
:102320000139A940DC08A4000419276A8F430199E8
:102330000969A9400F43276203245F00BC40E443BE
:102340000568013E2540AC4603251540BD40614669
:102350000D430560012E0FD801998668CD6826408F
:10236000BD40354385604668039915098E430121B8
:102370000D409D4035434560C56801992C408D68EE
:102380008021BD4049052C43C4600A4247D0012149
:10239000244C0326A5691E400D43A561A4699D0830
:1023A0000C400594059C0F241F49AD00B6006D1824
:1023B000B4409021AF68C905A7430024884208D0E3
:1023C0001A490134884204D019490434884200D1A2
:1023D000033CB44000993C430E00AC60154CCD4327
:1023E00027683E43D10301D43E002E402660676833
:1023F000009E3E43910301D43E002E406660A768D4
:10240000009E3E43D10201D43E002E40A660E66805
:10241000009F3743920201D42E403700E76001331A
:1024200066E7C0460010024000000140000400487A
:102430000008004800040140002A01D08161704773
:102440008162FCE74369594041617047F0B5036818
:1024500085B00500DB0733D42B689B0700D58AE0E5
:102460002B681B0700D5CAE02B685B0700D5EDE0A1
:102470002B68DB061AD56A69BC4C0423012A00D0FC
:1024800059E1616B02260B436363636B1A4362631A
:10249000FFF736F90700636B334200D144E1F821BE
:1024A000626BAB698A43DB00134363632B689B0653
:1024B00000D567E1696A002900D0A4E1002018E096
:1024C0000C21AA4C62680A40042A0BD063680B40B6
:1024D000082B10D1C022636852021340802252029E
:1024E000934208D123689B03B6D56B68002BB3D108
:1024F000012005B0F0BD6B68012B13D18023226849
:102500005B0213432360FFF7FBF880260700B60247
:1025100023683342A0D1FFF7F3F8C01B6428F7D932
:102520000320E6E7002B16D12368914A802613404A
:10253000236023688F4AB60213402360FFF7E0F858
:1025400007002368334200D186E7FFF7D9F8C01BA4
:102550006428F6D9E4E7052B05D180232268DB0245
:1025600013432360CAE72368814A1340236023682A
:10257000804A1340C6E70C227C4C636813420BD0A0
:1025800063681340082B15D1C022636852021340C0
:102590008022120293420DD123689B0702D5EB687B
:1025A000012BA5D1F82122682B698A43DB00134354
:1025B000236055E7EA680123002A0FD0226802262B
:1025C00013432360FFF79CF8070023683342E9D1E7
:1025D000FFF796F8C01B0228F7D9A1E72268022668
:1025E0009A432260FFF78CF807002368334200D13A
:1025F00036E7FFF785F8C01B0228F6D990E7EA69AD
:1026000001235A4C002A10D0626A022613436362E7
:10261000FFF776F80700636A334200D024E7FFF73C
:102620006FF8C01B0228F6D97AE7626A02269A433D
:102630006262FFF765F80700636A334200D113E76F
:10264000FFF75EF8C01B0228F6D969E78022002157
:10265000464C5205E3690091134208D1E3691343E4
:10266000E361E36913400393039B012300938027F5
:10267000414E7F0033683B4206D0AB68012B13D13B
:10268000226A1343236230E033683B433360FFF731
:1026900037F8019033683B42EFD1FFF731F8019BE7
:1026A000C01A6428F6D93BE70122002B14D1236A13
:1026B000022793432362236A033293432362FFF783
:1026C0001FF80600236A3B4225D0FFF719F82B4B71
:1026D000801B9842F6D923E7052B0BD1216A013BD9
:1026E0000B432362236A1A432262FFF709F8022789
:1026F00006000DE0236A934304222362236A934376
:10270000C0E7FEF7FDFF1D4B801B984200D907E78D
:10271000236A3B42F5D0009B012B00D0A8E6E36979
:10272000174A1340E361A3E6FEF7EAFFC01B022845
:1027300000D8B0E6F4E6053203D1626B9A436263D7
:10274000ADE6626B0226134301226363636B93431E
:102750006363FEF7D5FF0700636B334200D1A5E644
:10276000FEF7CEFFC01B0228F6D9D9E600100240C2
:10277000FFFFFEFFFFFFFBFF00700040881300001B
:10278000FFFFFFEF0C21464C62680A408A4209D0E5
:1027900063680B40082B0ED1C022636852021340BD
:1027A000934208D1636BDB0300D483E62B6A012BD1
:1027B00000D09DE67EE62B6A002B11D08026636B4D
:1027C000760233436363FEF79BFF0700636B33427C
:1027D00000D06FE6FEF794FFC01B0228F6D99FE6F3
:1027E000636B304A802613406363FEF789FF07005E
:1027F0007602636B334200D15CE6FEF781FFC01BBB
:102800000228F6D98CE60C22254C63681340082B6D
:1028100000D16DE62368244A1340236002292FD19A
:10282000FEF76EFF80260700B6042368334221D1ED
:102830000F22E36A93432A6B1343E362A96AEB6AAC
:1028400062680B43194980250A4013436360802363
:1028500022685B0413432360FEF752FF0600AD04B9
:1028600023682B4200D029E6FEF74AFF801B02288E
:10287000F6D955E6FEF744FFC01B0228D5D94FE62E
:10288000FEF73EFF80250600AD0423682B4200D1F1
:1028900014E6FEF735FF801B0228F6D940E6C04655
:1028A00000100240FFFFFEFFFFFFFFFEFF7FC2FFA1
:1028B00070B5194C88B010222100684600F088FBE2
:1028C000210004AD10221031280000F081FB0C2201
:1028D000124E73681A40082A04D00C2A1AD11048E4
:1028E00008B070BD0F206A46990C0140545CF26A32
:1028F0000240A95CC0228020520213404002834261
:1029000001D1084802E09342FBD10548FDF706FCDF
:102910006043E5E70348E3E70C300008001002409D
:10292000006CDC0200127A00F7B501224F4C060061
:102930002368019113408B421FD33268930728D438
:10294000D3072ED40123226801991A40914200D264
:102950007EE03368464C5B0700D580E0FFF7A8FFB8
:102960006368444A1B061B0FD35CD840424B186077
:102970000020FEF79BFE00200AE0236801999343A4
:102980000B43236023681340019A9A42D5D001205B
:10299000FEBDF02036494B688343B06803434B606B
:1029A000CEE77268324D012A1AD12B689B03EED50F
:1029B00003216B688B4313436B60FEF7A1FE7368C2
:1029C0000700012B1CD10C226B681340042BB9D0DB
:1029D000FEF796FE294BC01B9842F4D90320D7E797
:1029E000022A03D12B689B01E2D4D0E7032A03D14A
:1029F0006B6BDB03DCD4CAE72B689B07D8D4C6E734
:102A0000022B0BD10C226B681340082B9AD0FEF7D7
:102A100077FE1A4BC01B9842F4D9DFE7032B11D085
:102A20000C226B68134200D18CE7FEF769FE134B52
:102A3000C01B9842F4D9D1E7FEF762FE0F4BC01BD2
:102A40009842CBD80C226B6813409342F4D179E7BB
:102A500022689A43226022681A4298D179E7636813
:102A6000074A1340F2681343636077E7002002408F
:102A7000001002406C3000080000002088130000A5
:102A8000FFF8FFFF014B18687047C04600000020A8
:102A90000122036A70B593430362036A446885693F
:102AA000723295430A681543022293438A6813439E
:102AB000114A904205D0114EB04202D0104EB042A1
:102AC00013D10826B343CE6833430426B343904260
:102AD00005D00A4A904202D0094A904205D1094ADB
:102AE0008E6922404C69344314434A6844608561CE
:102AF0004263036270BDC046002C014000440140A7
:102B000000480140FFFCFFFF70B57325036A164AB9
:102B100013400362036A4268C469AC430D682C43E6
:102B2000124D2B408D682D022B43114DA8420ED122
:102B3000104D1D40CB681B022B430F4D2B400F4DFA
:102B40004E6915408A69324312012A4305E00C4D53
:102B5000A842F4D00B4DA842F1D042604A68C4614B
:102B6000C263036270BDC046FFFEFFFFFFFDFFFFB3
:102B7000002C0140FFF7FFFFFFFBFFFFFFCFFFFF30
:102B80000044014000480140036A124A30B5134036
:102B90000362026A104C4368C56925400C68240230
:102BA00025430E4C22408C68240322430C4CA04247
:102BB00005D00C4CA04202D00B4CA04204D10B4CCF
:102BC00023404C69A401234343604B68C5610364FF
:102BD000026230BDFFEFFFFFFF8CFFFFFFDFFFFF53
:102BE000002C01400044014000480140FFBFFFFFAE
:102BF0001D4A10B50368904206D08024E405A04227
:102C000002D01A4CA0420CD17024A3434C68234339
:102C100090420FD08024E405A0420BD0134CA04278
:102C200008D0134CA04205D0124CA04202D0124C46
:102C3000A04203D1114C2340CC6823438024A343FA
:102C40004C69234303608B68C3620B6883629042C4
:102C500005D0084B984202D0074B984201D10B692E
:102C600003630123436110BD002C014000040040B8
:102C7000002000400044014000480140FFFCFFFFED
:102C800070B504000120002C14D025003D352B78B0
:102C9000DBB2002B05D122003C3213702000FEF77E
:102CA0006BFC022320682B70211DFFF7A1FF01237D
:102CB00000202B7070BD00001022036A70B5934392
:102CC0000362026A154D436884692C400D682D0229
:102CD0002C432025AA438D682D012A43104DA8427C
:102CE0000FD18025AA431500CA6812012A43402546
:102CF000AA430C4D4E691D408B6933439B002B4307
:102D000005E0094DA842F4D0084DA842F1D0436037
:102D10004B6884618363026270BDC046FF8CFFFF15
:102D2000002C0140FFF3FFFF004401400048014038
:102D3000F8B5060002233C360D0031780400180077
:102D4000012925D0270001213D3731703B700C2A25
:102D50001AD81000FDF7D8F9071818181D181818F8
:102D60002F181818410029002068FFF791FE08224B
:102D7000236899690A4304219A619A698A439A618E
:102D80009A6929690A439A61012300203B703070D7
:102D9000F8BD29002068FFF78FFF80222368120109
:102DA00099690A439A619A6915490A409A612A69A0
:102DB00099691202E6E729002068FFF7A5FE0822BC
:102DC0002368D9690A430421DA61DA698A43DA613E
:102DD000DA6929690A43DA61D6E729002068FFF732
:102DE000D3FE802223681201D9690A43DA61DA69C5
:102DF00003490A40DA612A69D9691202EAE7C04642
:102E0000FFFBFFFF10B501248C408A40036AA343F7
:102E10000362036A1A43026210BD000010B5040089
:102E200001220068FFF7EEFF23680A4A934205D0AB
:102E3000094A934202D0094A934204D18022596C34
:102E400012020A435A640122196800200A431A60D8
:102E500010BDC046002C0140004401400048014024
:102E600010B5040000220068FFF7CCFF2368124A67
:102E70001249934205D0124A934202D0114A93421A
:102E80000AD11A6A0A4207D1186A0F4A104203D1BE
:102E90005A6C0E4802405A641A6A0A4207D1196AEB
:102EA000094A114203D101211A688A431A60012399
:102EB0003D340020237010BD002C01401111000092
:102EC000004401400048014044040000FF7FFFFF30
:102ED00030B504003C34227803000220012A17D0C8
:102EE0001D001B683D3528705A686E3082435A6059
:102EF0005A6808684968024380205A609A68824389
:102F00009A609A6800200A439A6001232B7020700F
:102F100030BD00001348854604200168090E1F22B9
:102F2000914205D110480121016010480021016043
:102F30000F481049104A002302E0D458C45004330B
:102F4000C4188C42F9D30D4A0D4C002301E01360E4
:102F50000432A242FBD3FEF779FB00F015F8FEF72E
:102F6000F3F8FEE7001800201810024000000140AE
:102F7000000000200400002084300008040000202D
:102F800054010020FEE7000070B500260C4D0D4CEA
:102F9000641BA410A64209D1002600F02BF80A4DAC
:102FA0000A4C641BA410A64205D170BDB300EB58B7
:102FB00098470136EEE7B300EB5898470136F2E741
:102FC0007C3000087C3000087C300008803000082D
:102FD000002310B59A4200D110BDCC5CC45401331B
:102FE000F8E703008218934200D17047197001334B
:102FF000F9E70000F8B5C046F8BC08BC9E4670472B
:0C300000F8B5C046F8BC08BC9E467047FE
:10300C0002030405060708090A0B0C0D0E0F10101D
:10301C000102030405060708090A0B0C0D0E0F101C
:10302C00440A000804090008040900080009000803
:10303C001C0A00081C0A00080E0A000800090008F7
:10304C001C0A00080E0A00081C0A000800090008E7
:10305C00240A0008240A0008240A0008280C000886
:10306C00000000000000000001020304060708092C
:04307C00E90000085F
:04308000C100000883
:0430840000127A00BC
:0400000508002F15AB
:00000001FF
