:020000040800F2
:100000000018002035180008B5170008B7170008B9
:1000100000000000000000000000000000000000E0
:10002000000000000000000000000000B9170008F8
:100030000000000000000000BB170008BD1700080A
:10004000A5180008A5180008A5180008A51800089C
:10005000A5180008A5180008A5180008A51800088C
:10006000A5180008A5180008A5180008A51800087C
:10007000A5180008A5180008A5180008A51800086C
:10008000A51800080000000000000000A5180008E6
:1000900000000000A5180008A5180008A518000811
:1000A00000000000A5180008A5180008A518000801
:1000B000A518000800000000C5170008A5180008D2
:1000C00010B5064C2378002B07D1054B002B02D02E
:1000D000044800E000BF0123237010BD040000208D
:1000E0000000000014190008044B10B5002B03D0C9
:1000F0000349044800E000BF10BDC04600000000F6
:100100000800002014190008002243088B4274D311
:1001100003098B425FD3030A8B4244D3030B8B4208
:1001200028D3030C8B420DD3FF22090212BA030C11
:100130008B4202D31212090265D0030B8B4219D3F2
:1001400000E0090AC30B8B4201D3CB03C01A524112
:10015000830B8B4201D38B03C01A5241430B8B425A
:1001600001D34B03C01A5241030B8B4201D30B0343
:10017000C01A5241C30A8B4201D3CB02C01A52416A
:10018000830A8B4201D38B02C01A5241430A8B422D
:1001900001D34B02C01A5241030A8B4201D30B0216
:1001A000C01A5241CDD2C3098B4201D3CB01C01A30
:1001B000524183098B4201D38B01C01A524143093A
:1001C0008B4201D34B01C01A524103098B4201D328
:1001D0000B01C01A5241C3088B4201D3CB00C01A95
:1001E000524183088B4201D38B00C01A524143080D
:1001F0008B4201D34B00C01A5241411A00D2014632
:10020000524110467047FFE701B5002000F006F8A4
:1002100002BDC0460029F7D076E770477047C04658
:1002200010B5040000F0C8FEFA218900FFF76CFF4A
:1002300000F0D8FA012000222100404200F098FA94
:10024000002010BD1023064A10B5116800200B4392
:100250001360FFF7E5FF01F029FA002010BDC0464A
:1002600000200240024A1368013313607047C04601
:1002700024000020014B18687047C046240000206D
:10028000F7B504000120002C70D025003D352B78F7
:10029000DBB2002B05D122003C321370200001F0AC
:1002A0001DFA02210127236829701A688A431A60FF
:1002B0001A683A431A60FFF7DDFF019023685E6811
:1002C0003E4049D05A683A4200D173E0A169802289
:1002D00001294CD119680A431A60E16940220129B9
:1002E00049D119680A431A60216A2022012946D19E
:1002F00019680A431A60616A1022012943D11968FA
:100300000A431A60A16A0822012940D119680A43E8
:100310001A60E16A042201293DD119680A431A6072
:100320000126E168A2680A4321690A4361690A4318
:10033000616801390A43DA611A68B2431A60FFF74B
:1003400099FF070023685A68324228D15868304024
:1003500030D120642E7009E0FFF78CFF019BC01A9A
:100360000A28ABD903203C3428702670FEBD1968DA
:1003700091431960B1E7196891431960B4E71968AE
:1003800091431960B7E7196891431960BAE7196892
:1003900091431960BDE7196891431960C0E7FFF701
:1003A00069FFC01B0A28CDD9032000233C342870E4
:1003B0002370DBE7042301202B70D7E730B504005E
:1003C0003C34237805000220012B14D00123237034
:1003D0002B003D3300290FD11A78222A08D01A7831
:1003E000422A05D01A78622A02D01A78722A1BD1C2
:1003F00000230220237030BD01290BD11A78322A44
:10040000F6D01A78522AF3D01A78622AF0D01A78E5
:10041000722AEDD01A78D2B2222A22D0422A22D0D1
:10042000122A22D1403208E01A78D2B2322A18D0E9
:10043000522A18D0122A12D130321A7000238F207B
:100440002A682B6455690002284350615069237063
:1004500099420CD10A33034353610800CBE72222AF
:10046000EBE76222E9E77222E7E73222E5E7502173
:10047000014351611800BEE770470000F7B500293D
:1004800061D1436BD82602680C011519019404242C
:100490007600AF5927409F6057D1AF597F0D1F603D
:1004A000DA270F24AE597F00B607F60FDE60EE594B
:1004B000ED5926402D0A0C01EDB21419DD6125001D
:1004C000B935FF351E612E68BD341E752E68FF34A8
:1004D000360A5E752E681962360C9E752D682D0ED3
:1004E000DD7525681D7625682D0A5D7625682D0C3D
:1004F0009D762468240EDC762023002929D1D46837
:1005000023430A24D3605369A343536103003D335B
:100510001A78222A02D01A78322A04D10468194D96
:1005200062692A4062611A78D2B200291BD1622A1C
:1005300015D0722A15D0422A21D1303A1A7000F013
:10054000F3FF0020FEBD836B9CE7AF59FF085F609F
:10055000A6E714692343136153695024D4E7322278
:10056000ECE75222EAE7622A05D0722A05D0522A25
:1005700005D1403AE2E72222E0E74222DEE701220B
:10058000DCE7C046FF70FFFF7047000010220368E1
:1005900070B5D96804000025114205D059690907D2
:1005A00002D58025DA60AD0010221969114206D00B
:1005B0005969490603D58021C9000D431A615A695A
:1005C000D2073AD59A6864490A408A4209D09A68A3
:1005D00062490A408A4204D09A6861490A408A42C4
:1005E0002BD19A68920706D49A68920503D49A6828
:1005F000920300D492E001215A698A435A61220091
:100600003D321178122903D1596956480140596188
:100610001378DBB2522B00D17AE0722B00D179E053
:10062000422B00D078E0203B13702000FFF724FF1E
:1006300022684D4B91680B43936023685A69920777
:1006400006D5DB689B0703D000212000FFF716FFCB
:1006500023685A69D20606D51B699B0703D001217E
:100660002000FFF70BFF0122236C1D432368256444
:100670009969114208D05969C90505D55969090414
:1006800002D5216C0A43226402229969114208D0E2
:100690005969890505D55969090402D5216C0A43B0
:1006A000226404229969114208D05969490505D587
:1006B0005969090402D5216C0A43226470219A69A0
:1006C0000A4212D05A6912050FD55A6912040CD584
:1006D0009A690A40302A35D024D8102A2AD0202AF4
:1006E0002DD070219A698A439A61226C002A0ED01B
:1006F0000422596820000A435A60220001213D3239
:1007000011705A6919490A405A61FFF73DFF70BDDF
:10071000322389E7622387E7012385E780231B01D2
:100720001D4385E7502A10D0602A11D0402AD8D125
:10073000216C01E00822216C0A432264D1E7216C7C
:100740001022F9E7216C2022F6E7216C8022F3E7E2
:100750008022216C5200EFE7010000040001000834
:1007600000000110FF70FFFF19050100A470FFFFDA
:1007700070B58901002814DA0F23C0B20340083B8A
:10078000114A9B089B009B18032210409040FC32AA
:100790001500114085408140DC69AC432143D9619B
:1007A00070BD032583082840A840FC352E00074A69
:1007B0009B009B18C02286402940814092009C5893
:1007C000B44321439950EBE700ED00E000E100E085
:1007D0001F2318401E3B8340014A13607047C046E8
:1007E00000E100E0094A431E012093420DD8C021D8
:1007F000074A08485360036A09061B021B0A0B4399
:10080000036200200723906013607047FFFFFF0022
:1008100010E000E000ED00E0F0B50B6887B0029357
:1008200000230191029ADA4001D107B0F0BD012204
:100830009A4003920399029A0A40009200D188E0FC
:10084000019A1021526816008E43022E0ED1072500
:100850001D40AD000139A940DC08A4000419276A35
:100860008F4301990969A9400F43276203245F0060
:10087000BC40E4430568013E2540AC4603251540D5
:10088000BD4061460D430560012E0FD80199866871
:10089000CD682640BD4035438560466803991509FB
:1008A0008E4301210D409D4035434560C568019947
:1008B0002C408D688021BD4049052C43C4600A420C
:1008C00047D00121244C0326A5691E400D43A56194
:1008D000A4699D080C400594059C0F241F49AD0098
:1008E000B6006D18B4409021AF68C905A743002435
:1008F000884208D01A490134884204D01949043486
:10090000884200D1033CB44000993C430E00AC60E7
:10091000154CCD4327683E43D10301D43E002E4001
:1009200026606768009E3E43910301D43E002E403E
:100930006660A768009E3E43D10201D43E002E406F
:10094000A660E668009F3743920201D42E4037002C
:10095000E760013366E7C046001002400000014036
:10096000000400480008004800040140002A01D0AB
:10097000816170478162FCE743695940416170477A
:10098000F0B5036885B00500DB0733D42B689B07FF
:1009900000D58AE02B681B0700D5CAE02B685B07EF
:1009A00000D5EDE02B68DB061AD56A69BC4C042340
:1009B000012A00D059E1616B02260B436363636B2C
:1009C0001A436263FFF756FC0700636B334200D1A2
:1009D00044E1F821626BAB698A43DB001343636334
:1009E0002B689B0600D567E1696A002900D0A4E165
:1009F000002018E00C21AA4C62680A40042A0BD09F
:100A000063680B40082B10D1C02263685202134068
:100A100080225202934208D123689B03B6D56B68AB
:100A2000002BB3D1012005B0F0BD6B68012B13D1B1
:100A3000802322685B0213432360FFF71BFC8026A0
:100A40000700B60223683342A0D1FFF713FCC01B96
:100A50006428F7D90320E6E7002B16D12368914AD2
:100A600080261340236023688F4AB6021340236018
:100A7000FFF700FC07002368334200D186E7FFF749
:100A8000F9FBC01B6428F6D9E4E7052B05D18023C8
:100A90002268DB0213432360CAE72368814A1340BC
:100AA00023602368804A1340C6E70C227C4C6368AD
:100AB00013420BD063681340082B15D1C022636822
:100AC000520213408022120293420DD123689B07E9
:100AD00002D5EB68012BA5D1F82122682B698A4346
:100AE000DB001343236055E7EA680123002A0FD097
:100AF0002268022613432360FFF7BCFB070023682C
:100B00003342E9D1FFF7B6FBC01B0228F7D9A1E7B2
:100B1000226802269A432260FFF7ACFB0700236895
:100B2000334200D136E7FFF7A5FBC01B0228F6D9F8
:100B300090E7EA6901235A4C002A10D0626A022623
:100B400013436362FFF796FB0700636A334200D0EA
:100B500024E7FFF78FFBC01B0228F6D97AE7626A09
:100B600002269A436262FFF785FB0700636A3342FD
:100B700000D113E7FFF77EFBC01B0228F6D969E717
:100B800080220021464C5205E3690091134208D1AE
:100B9000E3691343E361E36913400393039B012378
:100BA00000938027414E7F0033683B4206D0AB68FC
:100BB000012B13D1226A1343236230E033683B4395
:100BC0003360FFF757FB019033683B42EFD1FFF7EB
:100BD00051FB019BC01A6428F6D93BE70122002B88
:100BE00014D1236A022793432362236A0332934377
:100BF0002362FFF73FFB0600236A3B4225D0FFF745
:100C000039FB2B4B801B9842F6D923E7052B0BD1E0
:100C1000216A013B0B432362236A1A432262FFF7D6
:100C200029FB022706000DE0236A93430422236276
:100C3000236A9343C0E7FFF71DFB1D4B801B9842BF
:100C400000D907E7236A3B42F5D0009B012B00D077
:100C5000A8E6E369174A1340E361A3E6FFF70AFB3E
:100C6000C01B022800D8B0E6F4E6053203D1626B5F
:100C70009A436263ADE6626B02261343012263630B
:100C8000636B93436363FFF7F5FA0700636B3342CB
:100C900000D1A5E6FFF7EEFAC01B0228F6D9D9E687
:100CA00000100240FFFFFEFFFFFFFBFF007000404F
:100CB00088130000FFFFFFEF0C21464C62680A40DA
:100CC0008A4209D063680B40082B0ED1C0226368AA
:100CD00052021340934208D1636BDB0300D483E6D6
:100CE0002B6A012B00D09DE67EE62B6A002B11D0EB
:100CF0008026636B760233436363FFF7BBFA07001A
:100D0000636B334200D06FE6FFF7B4FAC01B0228D2
:100D1000F6D99FE6636B304A802613406363FFF782
:100D2000A9FA07007602636B334200D15CE6FFF755
:100D3000A1FAC01B0228F6D98CE60C22254C636868
:100D40001340082B00D16DE62368244A134023602A
:100D500002292FD1FFF78EFA80260700B6042368F8
:100D6000334221D10F22E36A93432A6B1343E36298
:100D7000A96AEB6A62680B43194980250A4013434C
:100D80006360802322685B0413432360FFF772FAD9
:100D90000600AD0423682B4200D029E6FFF76AFA6B
:100DA000801B0228F6D955E6FFF764FAC01B02281B
:100DB000D5D94FE6FFF75EFA80250600AD0423681B
:100DC0002B4200D114E6FFF755FA801B0228F6D912
:100DD00040E6C04600100240FFFFFEFFFFFFFFFE9F
:100DE000FF7FC2FF70B5194C88B010222100684601
:100DF00000F07EFD210004AD10221031280000F02B
:100E000077FD0C22124E73681A40082A04D00C2A6F
:100E10001AD1104808B070BD0F206A46990C0140E5
:100E2000545CF26A0240A95CC02280205202134046
:100E30004002834201D1084802E09342FBD10548B9
:100E4000FFF762F96043E5E70348E3E72C19000880
:100E500000100240006CDC0200127A00F7B501229B
:100E60004F4C06002368019113408B421FD3326818
:100E7000930728D4D3072ED40123226801991A405E
:100E8000914200D27EE03368464C5B0700D580E09B
:100E9000FFF7A8FF6368444A1B061B0FD35CD840CA
:100EA000424B18600020FFF7BBF900200AE02368DE
:100EB000019993430B43236023681340019A9A429C
:100EC000D5D00120FEBDF02036494B688343B06881
:100ED00003434B60CEE77268324D012A1AD12B686A
:100EE0009B03EED503216B688B4313436B60FFF7C5
:100EF000C1F973680700012B1CD10C226B681340E9
:100F0000042BB9D0FFF7B6F9294BC01B9842F4D98E
:100F10000320D7E7022A03D12B689B01E2D4D0E754
:100F2000032A03D16B6BDB03DCD4CAE72B689B0776
:100F3000D8D4C6E7022B0BD10C226B681340082BC8
:100F40009AD0FFF797F91A4BC01B9842F4D9DFE704
:100F5000032B11D00C226B68134200D18CE7FFF7F2
:100F600089F9134BC01B9842F4D9D1E7FFF782F9F6
:100F70000F4BC01B9842CBD80C226B681340934296
:100F8000F4D179E722689A43226022681A4298D104
:100F900079E76368074A1340F2681343636077E7B1
:100FA00000200240001002404C1900080000002000
:100FB00088130000FFF8FFFF014B18687047C04618
:100FC00000000020E021036810B55A688A435A6087
:100FD00082224168520091420CD18021826809022C
:100FE0008A4203D08021C9008A4203D140211A6875
:100FF0008A431A608021826A89018A4206D119686F
:10100000074C2140196019680A431A600300012245
:101010005D331A7000235C300370032010BDC0469E
:10102000FFDFFFFFF8B505000C00160080272B68D6
:101030009868384006D0621CFAD0002C03D12800F2
:10104000FFF7C0FFF8BDFFF715F9801B8442EED80B
:10105000F5E7F0B5C02706000D00140085B0019338
:10106000FF0002AB3168DA1D886828400CD0BD4211
:1010700003D10B7BDBB213701378631CF4D0002C0C
:1010800004D13000FFF79EFF05B0F0BDFFF7F2F886
:10109000019BC01A8442E4D8F3E770B513000D0039
:1010A00016000A00C02149010400FFF7D2FF002802
:1010B00005D02023226E0320134323660FE0320065
:1010C00029002000FFF7AEFF0028F2D1C021330035
:1010D0002A00C9002000FFF7BCFF0028E9D170BD3D
:1010E000F8B504000120002C4BD000232500A3629A
:1010F0005D352B78DBB2002B05D122005C321370FA
:10110000200000F027FB0223402221682B700B688F
:10111000002093430B60E023E268DB009A4231D960
:10112000F0263601B24233D10600206B002803D1ED
:101130009A422FD902232363A7686368A0693B43BF
:1011400027693B4367693B43E7693B43276A3B4366
:10115000A76A3B438027BF0007403B430B60636A9D
:10116000000C1A43636B1A430423184010430643D0
:101170004E60CB69084A00201340CB6101232066F2
:101180002B70F8BD802676019A42CED0A062CCE7C3
:101190000600FBE70123CEE7FFF7FFFFF0B51F00D6
:1011A000030087B05C33019202931B7804000D00AA
:1011B0000226012B00D17AE00123029A1370FFF777
:1011C00059F823005D33009003931B78DBB2012BA9
:1011D00067D11E00002D64D0019B002B61D003233A
:1011E000039A13706A4692880023A2876A469288FF
:1011F0002366E287A21D2364A56302329387D38707
:101200002365E3648023A2681B029A4205D18023F0
:101210002268DB0111680B431360402223681968C0
:10122000114202D119680A431A60E021E068C9003E
:101230006268884247D9002A02D0E28F012A06D18B
:101240002A880235DA60E38F013B9BB2E3870226EE
:10125000E38F002B16D1009A39002000FFF71DFF05
:10126000002800D06CE0A368002B06D1059323680A
:10127000DA6805929B680593059B266E731E9E4156
:10128000F6B20EE023689A68324207D02A88023507
:10129000DA60E38F013B9BB2E387D9E7002F09D1E6
:1012A00003260123039A13700023029A137030005F
:1012B00007B0F0BD7B1CCBD0FEF7DCFF009BC01A53
:1012C0008742C5D8ECE7002A02D0E28F012A09D173
:1012D000E28F012A19D92A880235DA60E38F023BAE
:1012E0009BB2E3870226E38F002BB4D023689A6871
:1012F00032421AD0E28F012A0FD92A880235DA60E9
:10130000E38F023B9BB2E387EDE72A7801351A733E
:10131000E38F013B9BB2E387E4E72A7801351A7338
:10132000E38F013B9BB2E387DDE7002FB8D07B1C46
:10133000D9D0FEF79FFF009BC01A8742D3D8AFE7F2
:10134000202323668FE70300181C0E38FDDC70474E
:1013500010B580242402902000222100C005FFF750
:1013600005FB0248FFF7EFFFF5E7C04680969800BF
:1013700010B5102492B03422002105A800F0C1FA63
:101380000021220001A800F0BCFA022305A8059361
:10139000013B08930994FFF7F3FA011E01D0FFF710
:1013A000D7FF072302900390049001A80193FFF751
:1013B00055FD0028F3D112B010BD000030B589B042
:1013C000FEF740FFFFF7D4FF1422002103A800F02E
:1013D00098FA80204A4B800259694A4C014359616E
:1013E00080215A69C902024090200192019A5A69EB
:1013F000C0050A435A615B6900220B400293210039
:10140000029BFFF7B3FA0022F9213F48FFF7AEFA3B
:10141000902001250394002403A9C0050495059498
:101420000694FFF7F9F9F923374803A903930495C4
:1014300005940694FFF7F0F93448354B8460036057
:1014400004234360C0231B03036180235B03C46048
:1014500043618461C561056244628462C462FEF7CF
:101460000FFFA04201D0FFF773FF2A4B2A4A986072
:101470001A60822252005A60E022D200DA60802292
:1014800092009A61F13AFF3A18615861DA61186284
:1014900058629862093A186358631800DA62FFF7D5
:1014A0001FFE051EDFD11D4B1C68012C1DD18021A4
:1014B00090202200C900C005FFF758FA1848FFF72E
:1014C00042FF90202A000821C005FFF74FFA144878
:1014D000FFF739FF902022000821C005FFF746FAE8
:1014E0002A0021000848FFF741FA802424029020B6
:1014F0002100C005FFF740FA0A48FFF724FFF6E78E
:10150000001002401F840000000400482800002052
:1015100000640040700000200030014020000020E6
:101520001027000080969800F8B5802106009020D2
:1015300001220902C005FFF719FA8122736B92009C
:101540001968914235D101251B7D544C1A095A4026
:1015500023702A422DD05A0859094A402A4228D0DD
:101560009A0899094A402A4223D0DA08DB095340F5
:101570002B421ED04A4B1F68AF4222D101233A00B2
:101580005B4221004748FFF709FEFA208000FFF781
:10159000DAFE90203A001021C005FFF7E7F9FA20A3
:1015A0008000FFF7D0FE002210219020C005FFF739
:1015B000DDF900213000FEF701FF00286CD0FFF7B5
:1015C000C7FE002280213848FFF7D0F900224021D1
:1015D0003548FFF7CBF9002210213348FFF7C6F951
:1015E000002208213048FFF7C1F9002220212E48AF
:1015F000FFF7BCF9902000222900C005FFF7B6F9DB
:10160000902000220221C005FFF7B0F990200022AF
:101610000421C005FFF7AAF923782B4204D02A0041
:1016200080212148FFF7A2F923789B0704D50122E6
:1016300040211D48FFF79AF923785B0704D5012262
:1016400010211948FFF792F9082123780B4203D0A3
:1016500001221548FFF78AF92378DB0604D5012219
:1016600020211148FFF782F923789B0605D5012236
:1016700090201100C005FFF779F923785B0605D5A6
:10168000902001220221C005FFF770F92378DB06C4
:101690008FD50122042188E7F8BDC0466C000020E8
:1016A00020000020700000200004004801200A4BA8
:1016B00082B099690143996180219A694905024084
:1016C0000092009ADA690A43DA61DB690B40019300
:1016D000019B02B07047C0460010024010B50400E4
:1016E00088B01422002103A800F00BF9174B2268E0
:1016F0009A4228D18020164B8004D9690143D961D0
:101700008021DA69890202400192019A5A69902087
:101710000A435A615B69C0050B400293029BC023D8
:101720005B010393022304930133069303A901335E
:101730000793FFF771F800221E201100FFF718F839
:101740001E20FFF745F808B010BDC04600640040F9
:101750000010024010B5040088B01422002103A834
:1017600000F0CFF8114B22689A421DD18020104B17
:10177000400199690143996180219A698902024077
:101780000192019A5A6990200A435A615B69C00527
:101790000B400293029BE0230393DE3B049303A9D7
:1017A00001330693FFF738F808B010BD0030014050
:1017B000001002407047FEE77047704710B5FEF713
:1017C00051FD10BD10B50248FEF7E0FE10BDC04649
:1017D000280000200121114B11481A680A431A60A1
:1017E0005A6802405A601A680E4802401A601A6825
:1017F0000D4802401A605A680C4802400F205A6097
:10180000DA6A8243DA621A6B094802401A635A6B39
:101810008A435A6300229A607047C0460010024013
:101820000CB8FF08FFFFF6FEFFFFFBFFFFFFC0FF46
:101830002CFEFFFF1348854604200168090E1F2275
:10184000914205D11048012101601048002101603A
:101850000F481049104A002302E0D458C450043302
:10186000C4188C42F9D30D4A0D4C002301E01360DB
:101870000432A242FBD3FFF7ADFF00F015F8FFF7EB
:101880009DFDFEE7001800201810024000000140F6
:10189000000000200400002064190008040000205B
:1018A000D4000020FEE7000070B500260C4D0D4C62
:1018B000641BA410A64209D1002600F02BF80A4DA3
:1018C0000A4C641BA410A64205D170BDB300EB58AE
:1018D00098470136EEE7B300EB5898470136F2E738
:1018E0005C1900085C1900085C1900086019000800
:1018F000002310B59A4200D110BDCC5CC454013312
:10190000F8E703008218934200D170471970013341
:10191000F9E70000F8B5C046F8BC08BC9E46704721
:0C192000F8B5C046F8BC08BC9E467047F5
:10192C0002030405060708090A0B0C0D0E0F101014
:10193C000102030405060708090A0B0C0D0E0F1013
:10194C000000000000000000010203040607080963
:04195C00E900000896
:04196000C1000008BA
:0419640000127A00F3
:0400000508001835A2
:00000001FF
